{
  "contractName": "CertificateStorage",
  "abi": [
    {
      "inputs": [
        {
          "internalType": "bytes32",
          "name": "",
          "type": "bytes32"
        }
      ],
      "name": "certificates",
      "outputs": [
        {
          "internalType": "bytes32",
          "name": "hash",
          "type": "bytes32"
        },
        {
          "internalType": "string",
          "name": "studentId",
          "type": "string"
        },
        {
          "internalType": "uint256",
          "name": "issueDate",
          "type": "uint256"
        }
      ],
      "stateMutability": "view",
      "type": "function"
    },
    {
      "inputs": [
        {
          "internalType": "bytes32",
          "name": "_hash",
          "type": "bytes32"
        },
        {
          "internalType": "string",
          "name": "_studentId",
          "type": "string"
        }
      ],
      "name": "storeCertificate",
      "outputs": [],
      "stateMutability": "nonpayable",
      "type": "function"
    },
    {
      "inputs": [
        {
          "internalType": "bytes32",
          "name": "_hash",
          "type": "bytes32"
        }
      ],
      "name": "verifyCertificate",
      "outputs": [
        {
          "internalType": "bool",
          "name": "",
          "type": "bool"
        }
      ],
      "stateMutability": "view",
      "type": "function"
    }
  ],
  "bytecode": "0x608060405234801561000f575f80fd5b506104bf8061001d5f395ff3fe608060405234801561000f575f80fd5b506004361061003f575f3560e01c80635a73c69414610043578063742f068814610058578063850c176814610083575b5f80fd5b61005661005136600461021e565b6100b4565b005b61006b6100663660046102d3565b610162565b60405161007a939291906102ea565b60405180910390f35b6100a46100913660046102d3565b5f90815260208190526040902054151590565b604051901515815260200161007a565b5f82815260208190526040902054156101135760405162461bcd60e51b815260206004820152601a60248201527f436572746966696361746520616c726561647920657869737473000000000000604482015260640160405180910390fd5b60408051606081018252838152602080820184815242838501525f86815291829052929020815181559151909190600182019061015090826103c9565b50604082015181600201559050505050565b5f602081905290815260409020805460018201805491929161018390610345565b80601f01602080910402602001604051908101604052809291908181526020018280546101af90610345565b80156101fa5780601f106101d1576101008083540402835291602001916101fa565b820191905f5260205f20905b8154815290600101906020018083116101dd57829003601f168201915b5050505050908060020154905083565b634e487b7160e01b5f52604160045260245ffd5b5f806040838503121561022f575f80fd5b82359150602083013567ffffffffffffffff8082111561024d575f80fd5b818501915085601f830112610260575f80fd5b8135818111156102725761027261020a565b604051601f8201601f19908116603f0116810190838211818310171561029a5761029a61020a565b816040528281528860208487010111156102b2575f80fd5b826020860160208301375f6020848301015280955050505050509250929050565b5f602082840312156102e3575f80fd5b5035919050565b8381525f60206060602084015284518060608501525f5b8181101561031d57868101830151858201608001528201610301565b505f608082860101526080601f19601f83011685010192505050826040830152949350505050565b600181811c9082168061035957607f821691505b60208210810361037757634e487b7160e01b5f52602260045260245ffd5b50919050565b601f8211156103c457805f5260205f20601f840160051c810160208510156103a25750805b601f840160051c820191505b818110156103c1575f81556001016103ae565b50505b505050565b815167ffffffffffffffff8111156103e3576103e361020a565b6103f7816103f18454610345565b8461037d565b602080601f83116001811461042a575f84156104135750858301515b5f19600386901b1c1916600185901b178555610481565b5f85815260208120601f198616915b8281101561045857888601518255948401946001909101908401610439565b508582101561047557878501515f19600388901b60f8161c191681555b505060018460011b0185555b50505050505056fea2646970667358221220b5682728ab5935aa7f939a80e3f0f929a15ecb18870857f4f846240a2326553864736f6c63430008180033",
  "immutableReferences": {},
  "source": "// SPDX-License-Identifier: MIT\r\npragma solidity ^0.8.24;\r\n\r\ncontract CertificateStorage {\r\n    struct Certificate {\r\n        bytes32 hash;       // certificate ka hash\r\n        string studentId;   // roll no ya id\r\n        uint256 issueDate;  // blockchain timestamp\r\n    }\r\n\r\n    mapping(bytes32 => Certificate) public certificates;\r\n\r\n    // Certificate store karne ka function\r\n    function storeCertificate(bytes32 _hash, string memory _studentId) public {\r\n        require(certificates[_hash].hash == 0, \"Certificate already exists\");\r\n        certificates[_hash] = Certificate(_hash, _studentId, block.timestamp);\r\n    }\r\n\r\n    // Certificate verify karne ka function\r\n    function verifyCertificate(bytes32 _hash) public view returns (bool) {\r\n        return certificates[_hash].hash != 0;\r\n    }\r\n}\r\n",
  "sourcePath": "C:\\Users\\ASUS\\Desktop\\College-Project\\TrueMark\\blockchain\\contracts\\CertificateStorage.sol",
  "compiler": {
    "name": "solc",
    "version": "0.8.24+commit.e11b9ed9.Emscripten.clang"
  },
  "schemaVersion": "3.4.16",
  "updatedAt": "2025-09-27T15:31:38.097Z",
  "devdoc": {
    "kind": "dev",
    "methods": {},
    "version": 1
  },
  "userdoc": {
    "kind": "user",
    "methods": {},
    "version": 1
  }
}